:100000000C94E8050C9410060C9410060C94100641
:100010000C9410060C9410060C9410060C94100608
:100020000C9410060C9410060C94D10D0C94400EF8
:100030000C9410060C9410060C9410060C941006E8
:100040000C9410060C9410060C9410060C941006D8
:100050000C9410060C9410060C9410060C9472105C
:100060000C9410060C9410060C9410060C941006B8
:100070000C9410060C9410060C9410060C941006A8
:100080000C9410060C9410060C9410060C94100698
:100090000C9410060C9410060C9410060C94100688
:1000A0000C9410060C9410060C9410061E212DAE14
:1000B0003E09BE003F259A001E21A1003F219E005F
:1000C0003F25A1003F0581001E2129983F04BF0064
:1000D000213FA10010209F003F04BB003F20A00053
:1000E0007FC2C4C23F0204BF1E21219E3F09860079
:1000F0001E2111AE3F09B60022259900013F810063
:100100001F20209F0F308F007FD0C8D03B04BB0042
:1001100007388700312925A33F21A100030CB00037
:100120002121BF00020182002020A00080000000E9
:10013000AF0000000300830052BF127F5255BF156D
:10014000310CA3001A251AA8830000001EA100008C
:10015000219E000014089400081C880020900000D4
:1001600008088800A0000000300C83001E219E00BB
:10017000BF0000003229A60021259A000F083F8801
:10018000272599001E259800013987001A259A0015
:1001900006299E0094000000209400000814A2008C
:1001A0001414940022148800012986000000000025
:1001B000003E5B4F5B3E3E6B4F6B3E1C3E7C3E1CED
:1001C000183C7E3C181C577D571C1C5E7F5E1C0033
:1001D000183C1800FFE7C3E7FF0018241800FFE7EA
:1001E000DBE7FF30483A060E2629792926407F05AD
:1001F0000507407F05253F5A3CE73C5A7F3E1C1CC3
:1002000008081C1C3E7F14227F22145F5F005F5F82
:1002100006097F017F006689956A6060606060946E
:10022000A2FFA29408047E040810207E2010080873
:100230002A1C08081C2A08081E101010100C1E0C7E
:100240001E0C30383E3830060E3E0E060000000010
:100250000000005F00000007000700147F147F14F7
:10026000242A7F2A1223130864623649562050003C
:1002700008070300001C2241000041221C002A1C28
:100280007F1C2A08083E0808008070300008080813
:100290000808000060600020100804023E51494533
:1002A0003E00427F400072494949462141494D3351
:1002B0001814127F1027454545393C4A49493141B8
:1002C000211109073649494936464949291E000086
:1002D00014000000403400000008142241141414DB
:1002E0001414004122140802015909063E415D59C7
:1002F0004E7C1211127C7F494949363E41414122D0
:100300007F4141413E7F494949417F090909013EF9
:10031000414151737F0808087F00417F4100204020
:10032000413F017F081422417F404040407F021C32
:10033000027F7F0408107F3E4141413E7F09090949
:10034000063E4151215E7F09192946264949493215
:1003500003017F01033F4040403F1F2040201F3FDB
:100360004038403F63140814630304780403615960
:10037000494D43007F4141410204081020004141A2
:10038000417F04020102044040404040000307084E
:100390000020545478407F2844443838444444284A
:1003A000384444287F385454541800087E090218F1
:1003B000A4A49C787F0804047800447D4000204079
:1003C000403D007F1028440000417F40007C0478BD
:1003D00004787C080404783844444438FC18242405
:1003E0001818242418FC7C08040408485454542485
:1003F00004043F44243C4040207C1C2040201C3C02
:100400004030403C44281028444C9090907C4464F8
:10041000544C44000836410000007700000041368B
:10042000080002010204023C2623263C1EA1A16111
:10043000123A4040207A3854545559215555794143
:100440002154547841215554784020545579400C1A
:100450001E527212395555555939545454593955FB
:100460005454580000457C410002457D420001453E
:100470007C40F0292429F0F0282528F07C545545AB
:10048000002054547C547C0A097F4932494949323E
:100490003248484832324A4848303A4141217A3A53
:1004A00042402078009DA0A07D39444444393D401D
:1004B00040403D3C24FF2424487E4943662B2FFCCA
:1004C0002F2BFF0929F620C0887E09032054547978
:1004D000410000447D413048484A32384040227A49
:1004E000007A0A0A727D0D19317D2629292F2826C6
:1004F0002929292630484D402038080808080808CE
:100500000808382F10C8ACBA2F102834FA00007B26
:10051000000008142A142222142A1408950022002C
:1005200095AA005500AAAA55AA55AA000000FF00E6
:10053000101010FF00141414FF001010FF00FF1023
:1005400010F010F0141414FC001414F700FF000055
:10055000FF00FF1414F404FC141417101F10101FD4
:10056000101F1414141F00101010F0000000001FC2
:10057000101010101F10101010F010000000FF10CD
:100580001010101010101010FF10000000FF1400C9
:1005900000FF00FF00001F10170000FC04F41414FB
:1005A0001710171414F404F40000FF00F7141414C7
:1005B00014141414F700F7141414171410101F1047
:1005C0001F141414F4141010F010F000001F101F6A
:1005D0000000001F14000000FC140000F010F010D8
:1005E00010FF10FF141414FF141010101F0000004F
:1005F00000F010FFFFFFFFFFF0F0F0F0F0FFFFFF53
:100600000000000000FFFF0F0F0F0F0F38444438A9
:10061000447C2A2A3E147E02020606027E027E02E4
:1006200063554941633844443C04407E201E200603
:10063000027E020299A5E7A5991C2A492A1C4C7240
:1006400001724C304A4D4D303048784830BC625AC7
:10065000463D3E494949007E0101017E2A2A2A2A57
:100660002A44445F444440514A444040444A514033
:100670000000FF0103E080FF000008086B6B0836F4
:1006800012362436060F090F060000181800000065
:100690001010003040FF0101001F01011E00191D54
:1006A0001712003C3C3C3C0000000000080B00021C
:1006B00002020100090400000102020000052400FA
:1006C000100105240101010424020605240600018D
:1006D0000705810310004009040100020A00000020
:1006E00007050202400000070583024000000403E2
:1006F000090412010002EF0201404123368000018B
:100700000102030141726475696E6F204C4C430015
:1007100041726475696E6F204C656F6E6172646FB3
:1007200000F0F89C8E8783878E9CF8F00000FEFF17
:100730000303030303070EFCF80000FEFF0303039B
:100740000303070EFCF80000FFFF0000000000009C
:1007500000FFFF0000FEFF8383838383C7EE7C38A6
:100760000000F8FC0E07030303070EFCF800003F2F
:100770007FE0C08080C0E07F3FFFFF0101010101F9
:100780000101FFFF0000FFFF0C0C0C0C1C3E77E387
:10079000C100007FFFC0C0C0C0C0E0703F1F0000AC
:1007A0001F3F70E0C0C0C0E0703F1F00007FFFC16E
:1007B000C1C1C1C1E3773E1C00001F3F70E0C0C053
:1007C000C0E0703F1F000000000001FFFF010000BB
:1007D00000D5F08D14A1C881CFD9F1AF20002F2F03
:1007E000204E6F7468696E67206C6F616465642E5B
:1007F000204265207375726520746F2068697420CB
:100800002773656E642720666972737420616E6455
:10081000207468656E20276C6F616427206F6E20DE
:100820007468652041726475626F792E002F2F20E5
:10083000506978656C2062797465732072656164B3
:10084000203D20002F2F20486569676874203D20D7
:10085000002F2F204C6F61642066696E6973686594
:10086000640A2F2F205769647468203D20001010FF
:1008700078F88CFCE4FCF6FEA2FE5BFFA9FF15FFF6
:100880000DFF15FFADFF59FFAAFEF2FE44FC18F85C
:100890000303060705070D0F0A0F1B1F161F151F61
:1008A000161F151F161F171F1A1F0D0F060703030C
:1008B00078F8BCFCDCFCEEFEAEFE57FFA7FF17FF8E
:1008C00007FF17FFA7FF57FFAEFEEEFE5CFC18F810
:1008D0000303060705070D0F0A0F1B1F161F151F21
:1008E000161F151F161F171F1A1F0D0F06070303CC
:1008F000F8F8FCFC7CFC7EFEBEFE3FFFBFFF3FFF26
:100900003FFF3FFFBFFF3FFFBEFEBEBE3CBCF8F84F
:100910000303060705070D0F0A0F1B1F161F151FE0
:10092000161F151F161F171F1A1F0D0F060703038B
:10093000F8F8FCFCFCFCFEFEFEFEFFFFFFFFFFFFE5
:10094000FFFFFFFFFFFFFFFFFEFEFEFEFCFC78F84F
:100950000203060705070D0F0B0F1B1F171F171F9D
:10096000171F171F171F171F1B1F0D0F0607030346
:100970000A2F2F20454E440A7D3B002C002C002CD2
:10098000002F2F2053544152540A002F2F207468F7
:10099000656E2063686F6F7365204C4F4144204E35
:1009A0004F204D41534B0A002F2F207468656E2055
:1009B00063686F6F7365204C4F414420574954481A
:1009C000204D41534B0A002F2F20466F72206C6F31
:1009D00061642C2063757420616E6420706173748F
:1009E00065206265747765656E20535441525420CA
:1009F000616E6420454E442C20616E642073656EE8
:100A000064206F7665722073657269616C20706F07
:100A100072740A005B5D203D207B0A005F616E649A
:100A20005F6D61736B00636F6E737420756E7369B5
:100A3000676E656420636861722050524F474D4570
:100A40004D207370726974650041524455424F598C
:100A5000205350524954450A454449544F52202886
:100A6000415345290A56455253494F4E20302E32A4
:100A70000A0A5041554C20574153534F4E2C0A4EB1
:100A80004F5620323031390A0A47414D45204A41FC
:100A90004D20340A5355424D495353494F4E005748
:100AA000495448204D41534B0A4E4F204D41534B22
:100AB0000057495448204D41534B0A4E4F204D4159
:100AC000534B0A4558414D504C45005945530A0077
:100AD0004E4F0A00434845434B45520A0057484988
:100AE00054450A00424C41434B0A0042470A5449CC
:100AF0004C450A414E494D2E0A004C45465400448F
:100B00004F574E0052494748540055500044454CF9
:100B10004554450A00494E534552540A00464C4933
:100B2000500A004D4F44450A4449520A444F204957
:100B300054210054484953204652414D450A414CE6
:100B40004C204652414D45530057494454480A48A9
:100B500045494748540043555252454E540A434F65
:100B6000505920544F0A5357415020574954480A6E
:100B7000544F54414C00445241570A4652414D454E
:100B80000A4D4F444946590A505245564945570A5D
:100B900053495A450A434C4541520A4C4F41440A75
:100BA000534156450A494E464F0A00290A41463AE2
:100BB00020002028000A463A20002A000A533A2042
:100BC0000020593A00583A003000307800003411C3
:100BD00011241FBECFEFDAE0DEBFCDBF11E0A0E0F1
:100BE000B1E0E6EFFBE302C005900D92A835B10736
:100BF000D9F727E0A8E5B1E001C01D92AF3EB207EA
:100C0000E1F715E0C8EED5E004C02197FE010E948F
:100C1000EE1DC73ED107C9F70E9476110C94F91D4D
:100C20000C94000030910E01432F50E0CA01409710
:100C300097FD0196959587958093CB0720910F019D
:100C4000422F50E0CA01409797FD019695958795F0
:100C50008093CC0736953093C90726952093CA0711
:100C60001092CD07089580910F0190E0079623E040
:100C7000959587952A95E1F720910E01289FB0015F
:100C8000299F700D1124660F771F80E092E00E946B
:100C9000C61D6034710510F060E470E060931201CD
:100CA000693008F068E06093110110921001089516
:100CB000E9E7F3E0A0E0B8E000800EBC8111012C70
:100CC0001197A0FDFDCF0192B9F70DB40895E62F5D
:100CD000ACE0B1E012969C91129713962C9130E003
:100CE000295F3F4F53E0359527955A95E1F7899F46
:100CF000D00111242A9FB0012B9F700D3A9F700DD7
:100D00001124E60FF72FF11D842F86958695869581
:100D1000899FE00DF11D1124EE0FFF1F4770E7586A
:100D2000FE4F818190E0042E02C0959587950A942C
:100D3000E2F7880F991F8270208130E002C035955C
:100D400027954A95E2F72170822B08959091E2074A
:100D5000982329F49091E107982381E009F480E039
:100D600008951F93CF93DF93EC01162F80E10E942B
:100D7000A606882369F088818F5F811710F4888325
:100D800001C0188284E0DF91CF911F910C94A606D8
:100D900080E80E94A6068823A9F38881811103C0F8
:100DA00011501883EFCF8150EACF97E0899F600DF3
:100DB0001124362F37708FEF90E0032E01C0880F7B
:100DC0000A94EAF7582F8095E62FF0E093E0F59526
:100DD000E7959A95E1F7F695FE2FEE27F795E795BB
:100DE000E40FF11DE758FC4F421768F490819527F6
:100DF0009193332331F0DF01A158BF4F9C91982785
:100E00009C934F5FF1CF0895FF920F931F93CF9361
:100E1000DF938C01F62ED42FFC01C08180E20E946A
:100E2000A606882331F0FC1618F4C150F801C083DF
:100E300011C080E40E94A6068823D1F3CD1720F4C8
:100E400081E08C0FF801808381E0F80190819C1390
:100E500001C080E0DF91CF911F910F91FF90089525
:100E6000EF92FF920F931F93CF93DF93ECE0F1E0AB
:100E70009281E381F0E0379633E0F595E7953A9576
:100E8000E1F7899F70011124EE9D8001EF9D100D07
:100E9000FE9D100D1124F801E60FF11D842F86959B
:100EA00086958695899FE00DF11D1124EE0FFF1F99
:100EB000477081E090E0042E01C0880F0A94EAF7A1
:100EC0008095BF0167587E4FDB019C919823B22F1C
:100ED000B170CB2F042E01C0CC0F0A94EAF7C92BB6
:100EE000DB01CC93E658FE4F21FBAA27A0F901C0F5
:100EF000AA0F4A95EAF7908189238A2B8083DF9194
:100F0000CF911F910F91FF90EF900895FC01809178
:100F10007801882311F13FB7F89482E08093E900CB
:100F20002091F200822F90E01816190614F481E047
:100F300090E0882339F0289844E640937701409167
:100F4000F1004083222339F02091F200211103C0E7
:100F50002BE62093E8003FBF08958FEF9FEF0895A1
:100F60008091C90790910E01292F2150330BA901BF
:100F70008217130639F41092C9079131B8F0109214
:100F8000CB0708958F5F8093C90790E02091CB072E
:100F9000BC01621B710927FD73956F30710531F437
:100FA000841795071CF42F5F2093CB070895809139
:100FB000CA0781111CC080910F019FEF980F909379
:100FC000CA07813118F080518093CC078091CC07FB
:100FD0009091CA07282F082E000C330B9217130686
:100FE00029F418161CF481508093CC070895815081
:100FF0008093CA07EBCF8091CA0790910F01292FE8
:101000002150330BA9018217130639F41092CA0735
:101010009131B8F01092CC0708958F5F8093CA0782
:1010200090E02091CC07BC01621B710927FD7395EC
:101030006F30710531F4841795071CF42F5F2093EE
:10104000CC0708959091C90791110CC080910E01B1
:101050009FEF980F9093C907813118F080518093CA
:10106000CB07089591509093C9078091CB07282F03
:10107000082E000C330B9217130699F718168CF7ED
:101080008150EDCF2FB7F89483E08093E9009091E1
:10109000E800892F807295FF04C09091F20080E4EF
:1010A000891B2FBF089580916F0181110DC082E0CF
:1010B00080936B0184E080936C0110926E0110921A
:1010C0006D0181E080936F018BE691E0089540917E
:1010D0005F015091600120915D0130915E014217E6
:1010E0005307B4F49091E8009570E1F39091E80013
:1010F00092FD19C08093F10080915F019091600191
:1011000001968F739927892B19F48EEF8093E8004D
:1011100080915F01909160010196909360018093AE
:101120005F0181E0089580E00895DF92EF92FF92E1
:101130000F931F93CF93DF93D82E8A01EB017B018E
:10114000E40EF51ECE15DF0559F0D7FE12C0FE01E4
:1011500084910E94670821968111F4CF0FEF1FEF51
:10116000C801DF91CF911F910F91FF90EF90DF9019
:1011700008958881EECF0F931F93CF93DF931F9233
:10118000CDB7DEB782E0898342E450E06CEA76E0D6
:1011900080E80E9495080E945308DC0112960D9188
:1011A0001C910115110589F0D801ED91FC91028087
:1011B000F381E02DBE016F5F7F4FC801099597FD58
:1011C00004C0F80100851185ECCF89810F90DF9173
:1011D000CF911F910F910895615030F02091F1004F
:1011E000FC0120830196F8CF289884E6809377014C
:1011F0000895EF92FF920F931F93CF93DF938C018B
:101200007B01D0E0C0E0F701EC0FFD1F6491662385
:1012100061F0D801ED91FC910190F081E02DC801C1
:101220000995892B11F02196EECFCE01DF91CF9158
:101230001F910F91FF90EF900895AF92BF92CF92C0
:10124000DF92EF92FF920F931F93CF93DF936C0186
:101250007B018B01040F151FEB015E01AE18BF0867
:10126000C017D10759F06991D601ED91FC91019019
:10127000F081E02DC6010995892B79F7C501DF9131
:10128000CF911F910F91FF90EF90DF90CF90BF9083
:10129000AF900895CF93DF931F92CDB7DEB76983E8
:1012A000DC01ED91FC910280F381E02D41E050E002
:1012B000BE016F5F7F4F09950F90DF91CF91089529
:1012C00083E08093E9008091F200882319F08AE39B
:1012D0008093E80008950E94420890E00895CF931B
:1012E000DF931F92CDB7DEB7FC018485958597FD0E
:1012F00008C02FEF3FEF358724870F90DF91CF9104
:101300000895CE0101960E948607019719F48981FC
:1013100090E0F3CF8FEF9FEFF0CF0F931F93CF931A
:10132000DF931F92CDB7DEB78C01FC0184859585D4
:1013300097FF0BC0CE0101960E948607019771F4BA
:10134000898190E0F80195878487F80184859585E7
:101350000F90DF91CF911F910F9108958FEF9FEF25
:10136000F1CFCF93DF9389E797E00E948D0997FD36
:1013700035C080538A3068F5DAE0C0E001C0D0E1C2
:1013800089E797E00E946F0997FD1FC020ED280FA5
:101390002A3030F4CD9F800D1124C0EDC80FF0CF5E
:1013A0002FE9280F263028F4CD9F800D1124C9EA9B
:1013B000F5CF2FEB280F263028F4CD9F800D112478
:1013C000C9ECECCF8F7D8835D1F28C2FDF91CF9196
:1013D000089589E797E00E946F09C5CFC0E0F5CF77
:1013E000FC018485958597FD0BC09FB7F89482E03A
:1013F0008093E9008091F2009FBF90E001960895EC
:101400009FB7F89482E08093E9008091F2009FBF3B
:1014100090E008953FB7F8948091590190915A0156
:10142000A0915B01B0915C0126B5A89B05C02F3F40
:1014300019F00196A11DB11D3FBFBA2FA92F982FFA
:101440008827BC01CD01620F711D811D911D42E0F5
:10145000660F771F881F991F4A95D1F708958F92BD
:101460009F92AF92BF92CF92DF92EF92FF926B0169
:101470007C010E940A0A4B015C01C114D104E10401
:10148000F104B9F00E940A0A681979098A099B09CE
:10149000683E73408105910580F321E0C21AD108AE
:1014A000E108F10888EE880E83E0981EA11CB11CAB
:1014B000E4CFFF90EF90DF90CF90BF90AF909F90E0
:1014C0008F9008958F929F92AF92BF92CF92DF92AA
:1014D000EF92FF920F931F93CF93DF936C017B01E9
:1014E0008A0180910B01882309F45CC08091780106
:1014F000882309F457C08091630180FF05C0809163
:10150000E00082608093E000E801B12C8AEFA82E11
:1015100093E0892E2AE3922E209711F4BB20D9F173
:101520000E94420881110AC0AA94AA20D9F161E060
:1015300070E080E090E00E942F0AEECF8C171D062D
:1015400011F00CF08C2F9FB7F8948092E900209155
:10155000E80025FD02C09FBFDFCF282F30E0C21B6F
:10156000D30BF701815020F041914093F100FACF65
:10157000E20EF31EBB2021F09092E800B12CEBCFDD
:101580008091E80085FDE7CF9092E800BB24B394FA
:10159000209709F3F3CF5D9884E6809362011016DB
:1015A00011063CF081E090E0F6019383828310E025
:1015B00000E0C801DF91CF911F910F91FF90EF9054
:1015C000DF90CF90BF90AF909F908F9008952D9A0D
:1015D0000895BC0190E080E00C942F0A8FB18095B3
:1015E000807F669B88601C9B84600895480F592FFC
:1015F000511D14161506D4F580389105BCF597FFDA
:1016000002C090E080E04138510514F040E850E01D
:10161000481BFB0177FD379633E0F595E7953A9542
:10162000E1F7F695FE2FEE27F795E795E80FF91FFE
:10163000E758FC4F6770772781E090E001C0880F82
:101640006A95EAF7382F213041F4415078F08191C2
:10165000DF011197832B8C93F8CF8095415030F0A8
:101660009191DF01119798239C93F8CF08958038CA
:101670009105B8F460347105A0F420E191E061FDBA
:1016800094E060FD990F62FD9295687F269FD001DE
:101690001124A80FA758BC4F8C9140FF03C0892B81
:1016A0008C93089590958923FBCF2F923F924F9270
:1016B0005F926F927F928F929F92AF92BF92CF92E2
:1016C000DF92EF92FF920F931F93CF93DF93CDB7EB
:1016D000DEB72A970FB6F894DEBF0FBECDBF9A8350
:1016E00089836A3061F5DC0155968C91B8E08B9F57
:1016F00090011124E981FA8181899289820F931FD7
:10170000928B818B108A178681E090E02A960FB623
:10171000F894DEBF0FBECDBFDF91CF911F910F9127
:10172000FF90EF90DF90CF90BF90AF909F908F9001
:101730007F906F905F904F903F902F9008956D3005
:1017400019F329813A813A872987D9011F96AD90EB
:10175000BC90B0E8AB16B1040CF07BC0F901C188B5
:10176000D288F0E4CF16D1040CF073C0D90155969D
:101770006C90559745E09501649E200D311D112414
:10178000121613060CF065C0262C312C910153E083
:10179000220F331F5A95E1F72C0D3D1D121613062B
:1017A0000CF057C05496BC91BB83E985FA85F38948
:1017B000FC83649FB00111249B0124553E4F3A8362
:1017C0002983712CE981FA818491F5E07F1201C0AF
:1017D00080E0460138E0532E282F30E03E832D83F1
:1017E0004C8080FF4B80411004C03B818C813817B6
:1017F000E1F010E000E00615C0F4D501A00FB11F24
:10180000B887AF83F12CE12CE61460F4B701680DC2
:10181000791D442D8F8198850E94370BBFEFEB1AFD
:10182000FB0AF2CF0F5F1F4FE6CF8D819E8195950A
:1018300087955A94820C931C5110CECF7394E981F2
:10184000FA813196FA83E983A20CB31CF6E07F1289
:10185000B9CFA985BA8555962C915597422F50E05E
:101860001F968D919C91B6E02B9F800D911D1124A8
:10187000E985FA85908B87872689222309F444CF4E
:101880006AEF64039001659F300D112420583F4F8B
:10189000281739070CF038CFDF010190F081E02DD7
:1018A0000190F081E02D6AE0CD0109952DCF0895DA
:1018B0009F92AF92BF92CF92DF92EF92FF920F93DF
:1018C0001F93CF93DF93DC0118962C9118976A3001
:1018D000D1F417968C91179716968C9316971496A9
:1018E0008C911497280F18962C9381E090E0DF914B
:1018F000CF911F910F91FF90EF90DF90CF90BF900D
:10190000AF909F90089516967C911697862F062E7D
:10191000000C990B4FE350E0603614F04FE150E0BB
:101920008423880F880F122F1770022E000C330BA0
:1019300093E0359527959A95E1F73695322F222732
:1019400037952795270F311D77FD3A95E901C7583F
:10195000DC4F00E0912C90E06CEA70E0621B730BAE
:10196000680F711D48E050E07A01E11AF108C92CB6
:10197000D12CD594C794D594C7944C2D943079F03C
:10198000FB01E20FF31FA4904A2D4F73FA2DF07C58
:101990009F2E9C28911103C0A6FA002700F921155B
:1019A00084E0380778F4C42E012E01C0CC0C0A94D0
:1019B000EAF7888119965C9119975523A9F1C0948B
:1019C0008C2188831230E8F06901E0E8CE0ED11C4A
:1019D000C114F4E0DF06A8F450E00E2C02C05595C7
:1019E00047950A94E2F76E0180E8C80ED11CF60113
:1019F00080811996BC901997BB20C9F0409584232B
:101A00008083011117C0A7FE15C0292F30E02F5F7A
:101A10003F4F16968C91169715969C911597890FA6
:101A2000820F16968C9361CFC82AC882CBCF482BE1
:101A30004083E7CF2F5F3F4F9F5F2196953009F09E
:101A400096CF25E030E0E5CF6AE08EEC97E00C948D
:101A5000580C089590E080E00895E9E7F1E083E014
:101A6000E937F80711F01192FACF80E180930E0167
:101A700080930F010E9433060C9412068F929F925E
:101A8000AF92BF92EF92FF920F931F93CF93DF938A
:101A9000CDB7DEB7A1970FB6F894DEBF0FBECDBFAE
:101AA0007C01FA01CB0119A2223008F42AE08E0150
:101AB0000F5D1F4F822E912CB12CA12CBF01A501CF
:101AC00094010E94A41DF901CA016A3074F5605D99
:101AD000D8016E938D01232B242B252B79F790E0D1
:101AE00080E0109789F0FD0101900020E9F731971F
:101AF000AF014A1B5B0BD701ED91FC910280F38192
:101B0000E02DB801C7010995A1960FB6F894DEBF84
:101B10000FBECDBFDF91CF911F910F91FF90EF903E
:101B2000BF90AF909F908F900895695CD1CF242F84
:101B3000462F50E070E060E00C943E0DCF93C82F2C
:101B40006AEC7BE089E797E00E94F908C03130F445
:101B500068EC7BE089E797E00E94F90840E150E0FB
:101B60006C2F89E797E0CF910C94970D42E050E0FD
:101B700064E571E089E797E00C94620ACF93DF9304
:101B8000BC0189E797E00E94F908EC010E94B60DBC
:101B90008C0F9D1FDF91CF9108950C948E1D0E9494
:101BA000F41D1F920F920FB60F9211248F939F93E3
:101BB0008091E1009091E100937F9093E10083FF99
:101BC0000FC01092E90091E09093EB001092EC00AE
:101BD00092E39093ED001092780198E09093F000DA
:101BE00082FF22C093E09093E9009091F200992344
:101BF00019F09AE39093E80090916201992341F0E3
:101C000090916201915090936201911101C05D9A8F
:101C100090917701992341F09091770191509093A1
:101C20007701911101C0289A84FF18C08091E200C9
:101C30008E7E81608093E2008091E1008F7E8093B0
:101C4000E100809163018E7E8061809363019F91AA
:101C50008F910F900FBE0F901F90189580FFF7CFB8
:101C60008091E2008E7E80618093E2008091E100AD
:101C70008E7E8093E100809163018E7E8160E5CF4E
:101C80001F920F920FB60F921124CF92DF92EF9214
:101C9000FF920F931F932F933F934F935F936F93F5
:101CA0007F938F939F93AF93BF93EF93FF93CF93C4
:101CB000DF93CDB7DEB76C97DEBFCDBF1092E900E2
:101CC0008091E80083FF25C068E0CE0145960E9420
:101CD000EC0882EF8093E8008D8987FF39C09091EE
:101CE000E80090FFFCCF982F907609F034C19E89D0
:101CF0004F89588D2F89F88C911131C0803861F54A
:101D0000809164018093F1001092F1008EEF809336
:101D1000E8006C960FB6F894DEBF0FBECDBFDF9122
:101D2000CF91FF91EF91BF91AF919F918F917F9153
:101D30006F915F914F913F912F911F910F91FF9064
:101D4000EF90DF90CF900F900FBE0F901F901895DF
:101D50009EEF9093E800C7CF1092F100D5CF91305D
:101D600059F48111D3CF4130510581F6809164013E
:101D70008D7F80936401CACF933049F48111C6CF1F
:101D80004130510519F6809164018260F2CF95309F
:101D900041F48091E80080FFFCCF20682093E300AD
:101DA000B5CF963009F0A9C00B8D1C8D22E01092A2
:101DB000E9001092600110925F01F2122EC01092A1
:101DC0005E0110925D010E94BB081F8299E0998319
:101DD000FA8291E09E8390EA98879AEF9987209102
:101DE0005F0130916001275F3F4F3C832B838D83E0
:101DF0001092E9001092600110925F0110935E0151
:101E000000935D0149E050E0BE016F5F7F4F80E0CD
:101E10000E9495080E94BB0879CF10935E01009341
:101E20005D010E945308DC0112960D911C91011571
:101E3000110509F451C1D801ED91FC910480F5819F
:101E4000E02DBE016B5E7F4FC8010995009709F038
:101E50003EC1F80100851185EACFF3E0FF120EC004
:101E60008F89882309F440C0823061F440E860E142
:101E700080E197E00E94BC10811148CF81E28093FD
:101E8000EB0047CF813029F440E86BE084E097E035
:101E9000F1CF833099F70E945308DC011296ED9040
:101EA000FC908E010F5F1F4F6801E114F10479F07F
:101EB000D701ED91FC910680F781E02DB801C701B3
:101EC0000995080F111DF701E084F184EECFD801C8
:101ED0001C92F60101900020E9F73197BF016C19BF
:101EE0007D0940E0C601C6CF6EEE76E0FB0144916D
:101EF00050E080E80E94950809CF973009F4BECFE2
:101F0000983021F481E08093F10000CF993009F0FE
:101F1000FDCE837009F0B2CFECE1F1E081E031E079
:101F200096E32191222371F08093E9003093EB0036
:101F3000DF0111972C912093EC009093ED008F5FBF
:101F4000873079F78EE78093EA001092EA008F8954
:101F500080937801DBCE8B8D9C8D1092E9001092DE
:101F6000600110925F0190935E0180935D01898D05
:101F7000811192C08E899D89913A49F4813209F08C
:101F80007DCF47E050E064E071E080E0B3CF913274
:101F900009F074CF833269F48F89988DB0E0A0E0A6
:101FA0008093000190930101A0930201B09303017B
:101FB000ADCE803269F48091E80082FFFCCF67E00B
:101FC00084E091E00E94EC088BEF8093E8009ECEC5
:101FD000823209F09BCE8F8980930B01EEEFFFE7F1
:101FE000859194918B3F9C4D51F1E0E0F8E0809118
:101FF000040190910501A0910601B0910701803B79
:102000009440A105B105F1F480910B0180FD1AC047
:10201000EE3F8AE0F80789F587E797E791838083A9
:10202000809160008093610188E19BE00FB6F89495
:10203000A895809360000FBE9093600067CEEEEF8E
:10204000FAE0D5CF808191818737974709F05ECE3E
:10205000A895809160008861809360008091610103
:1020600080936000EE3F2AE0F20789F08091FE0A3B
:102070009091FF0A9183808349CE80819181873737
:10208000980751F29093FF0A8093FE0AC5CF1092F1
:10209000FF0A1092FE0A3ACE0E945308DC01129603
:1020A0000D911C910115110509F4E8CED801ED91AF
:1020B000FC910190F081E02DBE016B5E7F4FC80165
:1020C0000995811123CEF80100851185EBCF1816F3
:1020D00019060CF41BCED2CEF1E0FF12BECE62EF99
:1020E00076E004CF1F920F920FB60F9211242F9318
:1020F0003F938F939F93AF93BF938091650190918E
:102100006601A0916701B09168013091580123E008
:10211000230F2D3758F50196A11DB11D20935801AD
:102120008093650190936601A0936701B093680165
:102130008091590190915A01A0915B01B0915C018D
:102140000196A11DB11D8093590190935A01A0934E
:102150005B01B0935C01BF91AF919F918F913F91D3
:102160002F910F900FBE0F901F90189526E8230F08
:102170000296A11DB11DD2CFEF92FF920F931F9334
:10218000CF93DF93F82E192FE62E042F81E0860FD0
:10219000880F0E94670883E00E946708CF2DD12F27
:1021A000EC0EFD2EF11CCE15DF05B9F007FF13C0B4
:1021B000FE0184910E946708182F80E00E94670842
:1021C000812321968111EFCFDF91CF911F910F9144
:1021D000FF90EF9008958881EDCF81E0F5CF0F93C8
:1021E0001F93CF93DF938C0181E090E00E94CD0D8F
:1021F00080FF32C08AE090E00E94CD0D9FEF980FE3
:102200009E3F50F522E330E0D80150963C932E9348
:102210001F9728E330E052963C932E935197CBE0E2
:10222000D0E0D801ED91FC910190F081E02D682F74
:10223000C8010995CE010E94CD0D2196C131D1056D
:1022400081F780E00E94580688EE93E0DF91CF91FD
:102250001F910F910C94E90ADF91CF911F910F917B
:10226000089504970C94EF10E9E7F7E013821282C7
:1022700088EE93E0A0E0B0E084839583A683B783E3
:1022800086E291E0918380838FEF9FEF958784872B
:10229000E8EDF7E0138212821186128680E18387CF
:1022A00010861782158684E491E09183808382E50D
:1022B00091E095838483108A1786128A118A81E0BF
:1022C000838B148A858B168AEEECF7E013821282D8
:1022D00028E331E03183208397E09483858317825C
:1022E0001086168211861092CD070895CF93DF9342
:1022F000CDB7DEB72D970FB6F894DEBF0FBECDBFBA
:10230000789484B5826084BD84B5816084BD85B5D0
:10231000826085BD85B5816085BD80916E008160DC
:1023200080936E0010928100809181008260809382
:102330008100809181008160809381008091800084
:1023400081608093800080919100826080939100F1
:1023500080919100816080939100809190008160D4
:10236000809390008091C10084608093C10080912F
:10237000C10082608093C1008091C1008160809320
:10238000C1008091C30081608093C3008091C00030
:1023900082608093C0008091C20081608093C200FF
:1023A00080917A00846080937A0080917A008260C4
:1023B00080937A0080917A00816080937A00809186
:1023C0007A00806880937A001092780110926401FC
:1023D000109263018091D70081608093D70080EADA
:1023E0008093D80089B5806189BD89B5826089BD37
:1023F00009B400FEFDCF61E070E080E090E00E9453
:102400002F0A8091D8008F7C80618093D8008091C2
:10241000E000807F8093E0008091E1008E7E8093D9
:10242000E1008DE08093E200559A209A81EC809340
:102430007C0085B1806F85B984B1877E84B984B111
:10244000876E84B95E9A5F988AB1806D8AB9769AF0
:102450006E9881B3806F81BB899880B38D7080BB8B
:1024600080E58CBD81E08DBD85E090E00E94E90AA9
:102470005F9A85E090E00E94E90A5E985C98E1ED41
:10248000F7E08EED97E024912EBD00000DB407FE1D
:10249000FDCF31968E179F07B1F75C9A81E8809344
:1024A00064008091650081608093650080E00E94F7
:1024B00058060E94EE0A87FF15C05C9885EA8EBD1B
:1024C00000000DB407FEFDCF5C9A2E982F982D9832
:1024D0008091640080628093640081E083BF88956E
:1024E00013BEFCCF0E94EE0A82FF48C02D980E94C6
:1024F000EE0A84788438E1F40E94E70A88EC90E0E0
:102500000E94E90A2F9882E090E00E948E1D8F3F82
:1025100029F06FEF82E090E00E94961D84EF91E039
:102520000E94E90A2F9A0E94EE0A84788438D9F32F
:102530000E94EE0A84718431E1F40E94E70A88EC7B
:1025400090E00E94E90A2E9882E090E00E948E1DA1
:10255000882329F060E082E090E00E94961D84EFDD
:1025600091E00E94E90A2E9A0E94EE0A8471843159
:10257000D9F388EC90E00E94E90AB4CF0E94E70A00
:1025800082E090E00E94CD0D882309F454C03E9A69
:102590003F9A81E090E00E94CD0D282F2470722E8A
:1025A00081FF0FC021112E9800EF1FEF88E0E82E69
:1025B000F12C0E94EE0A86FF41C02E9A2F9A0E94AB
:1025C000E70A82E390E00E94E90A0E94EE0A811184
:1025D000F8CF80E18093E3078FEF9FEF909386071A
:1025E0008093850710926A010E942D0D9E012B5F3A
:1025F0003F4F3E832D838FB7F894409165015091F2
:10260000660160916701709168018FBF8091E40756
:10261000342F381B832F2090E507222009F4A4C013
:102620003093E6071092E50780E090E0892B19F3DC
:102630000E940000E0CF3E983F98ABCF772029F072
:102640000430110511F42E9A2F9881E00E9458064B
:10265000980117FF04C022273327201B310B277056
:102660003327C80117FD0796B3E095958795BA956E
:10267000E1F717FF05C00197A701421B530B9A0111
:10268000AC015695542F44275795479547585C4FB2
:10269000D12CC12C2701421A530A8F3F6FEF9607A6
:1026A0000CF43BC0DA01AC56BF4F5A0170E060E059
:1026B000F601EF5DF84F4F018F3F9807A1F0F4014D
:1026C000E60FF71F6490E62DF0E0022E02C0EE0F39
:1026D000FF1F0A94E2F7FB87EA87F5016488FA8511
:1026E0006F2AF501648A2115310571F0F401E60FB6
:1026F000F71FE491F0E0042C02C0F595E7950A94E9
:10270000E2F7FC91EF2BEC936F5F7F4F1196FFEF99
:10271000AF1ABF0A6835710579F6019668E5C60EED
:10272000D11C40585F4FE0EBCE16D10409F0B5CF75
:1027300080E00E9458068FE090E00E94E90A0F5F57
:102740001F4F0931110509F034CF772011F02F9A6E
:102750002D9880E991E00E94E90A0E94E70A88ED3D
:1027600097E00E94EF102DCF9091E307391748F4BE
:102770008F5F891708F058CF81E083BF889513BE1B
:1027800053CF81E08093E5074093E4078091DF0712
:102790009091E00701969093E0078093DF07809186
:1027A000E1078093E2070E94EE0A8093E107822D01
:1027B000E9E7F3E081118FEF002481938193819306
:1027C00081930394D1F71092EA071092E9071092CF
:1027D000E8071092E70710E000E041E0B8018EE161
:1027E00090E00E94370B0F5F1F4F00341105A9F7CF
:1027F00010E000E041E0B8018FE590E00E94370B67
:102800000F5F1F4F00341105A9F721E041E260E29C
:1028100070E08FE590E00E94F60A909117019923ED
:10282000C9F021E0913009F020E0219590E080E0AE
:10283000FC01E752FC4F30E645E530FF4AEA422B07
:1028400041933F5F3038C1F780589F4F811542E078
:10285000940771F781E68093D4078093D50781E2CE
:102860008093D6071092D70765EC7BE08EEC97E05B
:102870000E94F9084AE050E06091C9078EEC97E0A9
:102880000E94970D61EC7BE08EEC97E00E94F908C6
:102890004AE050E06091CA078EEC97E00E94970DE5
:1028A0006CEB7BE08EEC97E00E94F9084AE050E088
:1028B00060910E018EEC97E00E94970D6AEB7BE031
:1028C0008EEC97E00E94F9084AE050E060910F0119
:1028D0008EEC97E00E94970D65EB7BE08EEC97E025
:1028E0000E94F9084AE050E0609110018EEC97E0F8
:1028F0000E94970D62EB7BE08EEC97E00E94F90856
:102900004AE050E0609111018EEC97E00E94970D33
:102910006BEA7BE08EEC97E00E94F9089091190138
:1029200080911001911120C1682F4AE050E08EEC97
:1029300097E00E94970D90911901809110019111DB
:102940001EC18F8380910E0190E020E230E0281BB1
:10295000390B37FF02C02F5F3F4F390175946794E1
:10296000688620910F0130E040E250E0421B530B9B
:1029700057FF02C04F5F5F4F4A0195948794898645
:1029800064E0880F991F6A95E1F774E0220F331F06
:102990007A95E1F75301BB246C01CA18DB08E0E625
:1029A000EE2EF12C24015524F901E419F509FB87D9
:1029B000EA879501281B390B3D872C8780911801E8
:1029C000811112C080EA8E0D3885831708F440C04B
:1029D00080910E018A0D9B2D911D2C853D852C0D1E
:1029E0003D1D28173907A4F510E000E0809118017B
:1029F00081110BC04985041730F180910F01840DBE
:102A0000952D911D08171907F4F460910F0170E0DE
:102A10008A859B85800F911F0E94C61D482F60915B
:102A20000E0170E0C6010E94C61D682F8F810E94B2
:102A30006706823040F041E0833009F040E0B801A1
:102A4000C7010E94370B0F5F1F4F0032110571F64F
:102A50005FEFE51AF50A6FEFC61AD60A80E8E816A6
:102A6000F10409F0ABCF90916A019F834090DF079A
:102A70005090E007923009F09EC080910C018230A6
:102A800061F5EFE14E225524F0E14F16510428F58F
:102A9000809116018D7F09F07DC0E091CA07E80D95
:102AA0008E2F877021E001C0220F8A95EAF7F0E0AF
:102AB00033E0F595E7953A95E1F7F695FE2FEE2789
:102AC000F795E795E752FC4F80E69191DF0111976A
:102AD00092279C938F5F8038C1F780911901880FEE
:102AE000880F69E2681B70E08091DF079091E00732
:102AF0000E94C61D9C0191E0232B09F090E080917B
:102B00001A01980F90931A0181E08093D407809363
:102B1000D5078093D6071092D70766E77BE08EEC47
:102B200097E00E94F9082EE140E060E080910C01FE
:102B30000E94D5062F8180E0211105C069E08CE05C
:102B400091E00E94B10600916A01011175C18823CC
:102B500039F080910C01811169C181E080936A0193
:102B600080E00E94580660CD90911A01890F992744
:102B7000991F6091110170E00E94DA1DD5CE9091ED
:102B80001A01890F9927991F6091110170E00E9425
:102B9000DA1DD7CEE091C907E05AE60DF0E0E7581C
:102BA000FC4F80E09081909590838F5FE058FF4FBD
:102BB0008430C1F792CF10E000E095E5892E99248A
:102BC0009A94D12CC12C6C2C7090CB07E72C072C3D
:102BD000000CFF08A0900E01B12CC8018E0D9F1DA6
:102BE0008A159B0508F0BDC04091CC07C601840F33
:102BF000911D47FD9A9520910F012817190609F09C
:102C000008F4AFC04C0D672D600F809110010E9439
:102C100067060115110509F0A6C017140CF4AEC023
:102C2000C114D10409F0B5C09091CC0719160CF469
:102C3000C3C09FE060FE90EF19821A821B821C8243
:102C4000823008F0C2C042E24B83F601F595E79569
:102C5000B5E0EE0FFF1FBA95E1F7E00FF11FEE0FA1
:102C6000FF1FEE0FFF1FBF0168567C4FDE0111965C
:102C7000592F5095FB014191BF018D919F0121502A
:102C8000310985234923842BF90180832D813E81DD
:102C9000A217B30779F73FEFC31AD30A40E1C4166E
:102CA000D10409F090CF0F5F1F4F0031110509F0DB
:102CB00088CF5F81513009F010CFC2018F71992701
:102CC00055245394409708F0512C0091CA0710E006
:102CD0008091CC07081B110987FD1395000F111F68
:102CE000000F111F6090C907712C6E187F08660CC9
:102CF000771C660C771C53016FE1A60EB11C0034E3
:102D0000110530F4252D44E0B801C5010E94F60AF2
:102D1000480184E0880E911CB8016D5F7F4F6034DC
:102D2000710528F4252D44E0C5010E94F60A17FF1D
:102D300002C010E000E07801640191E4891691047A
:102D40001CF070E4C72ED12CEC14FD040CF05FC015
:102D5000452DB701C5010E94370BEFEFEE1AFE0AB1
:102D6000EBCF84E056CF0F30110509F059CF970112
:102D7000205F3F4F2A153B050CF052CFC114D10400
:102D800031F085E02FE0C216D10409F052CF82E085
:102D900050CF3FE0C316D10409F04BCF2091CC07B0
:102DA000022E000C330B205F3F4F90910F019217C2
:102DB000130609F00CF43DCF0115110541F386E02F
:102DC0000F30110509F035CFE2CF823009F43DCF45
:102DD000833029F49C829B829A82998236CF8430F8
:102DE00031F48B8289825AEA5C835A832ECF8530F4
:102DF00031F462E269838A8288E88B8326CFE2E23B
:102E0000E983F1E1FA83EB8324E42C831ECFF2E221
:102E10006F0E711C0C151D050CF05FCE452DB80111
:102E2000C3010E94370B0F5F1F4FF4CF82E08093E6
:102E30006A0110920D0194CE023009F0C0C5E091F4
:102E40000C01E150E83008F0CEC0F0E0E15DF84E52
:102E500081E28093D4078093D5070C94EE1D371739
:102E600045189A18B5173118F3180B191A1988E074
:102E70008093D6071092D70766E57BE08EEC97E04B
:102E80000E94F90881E58093D4078093D50787E0F5
:102E90008093D6071092D7074AE050E06091100166
:102EA0008EEC97E00E94970D0E94240D4AE050E0BE
:102EB000609113018EEC97E00E94970D0E94240D03
:102EC0004AE050E0609114018EEC97E00E94970D6B
:102ED0000E94240D4AE050E0609111018EEC97E0D1
:102EE0000E94970D2CE440E267E080910D010E9462
:102EF000D50664E08DE091E00E94B10680910D015D
:102F0000811109C040911101415060E080E191E0E0
:102F10000E94040711C08330B9F44091120161E0AE
:102F200081E191E00E940407882331F010921001A2
:102F3000109213011092140188E00E94A6068111DC
:102F400010926A01322C0CCE40911101415060E088
:102F5000813041F483E191E00E94040784E00E9403
:102F6000A60640C084E191E0F7CF8DE18093D607BB
:102F70001092D70769E47BE08EEC97E00E94F90895
:102F800081E58093D4078093D5078CE18093D607A1
:102F90001092D7074AE050E060910E018EEC97E066
:102FA0000E94970D0E94240D4AE050E060910F01AD
:102FB0008EEC97E00E94970D2CE440E26CE180914A
:102FC0000D010E94D50662E08DE091E00E94B106FD
:102FD00080910D0181113DC040E261E08EE091E001
:102FE0000E940407382E332009F4A6CF80910C01EB
:102FF000813009F061C1D090100180910D01C09025
:10300000140110E000E0813009F02DC1C0901301DF
:1030100010E000E080910E018017110609F00CF419
:1030200018C1F12CE12C80910F018E151F0409F0BD
:103030000CF40CC14E2D602F8D2D0E946706282F99
:103040004E2D602F8C2D0E9430073FEFE31AF30ABC
:10305000EACF813009F070CF40E261E08FE091E08B
:10306000BFCF84E28093D6071092D70763E37BE05B
:103070008EEC97E00E94F9082CE440E263E2809134
:103080000D010E94D50662E0C1C01FE01093D60773
:103090001092D70763E27BE08EEC97E00E94F9087C
:1030A00083E48093D4078093D5071093D6071092BA
:1030B000D707809115016DE17BE0882331F065E150
:1030C0007BE0813011F06DE07BE08EEC97E00E94B8
:1030D000F908809116016AE07BE0882351F064E0F2
:1030E0007BE0813031F06FEF7AE0823011F06AEFEF
:1030F0007AE08EEC97E00E94F9082EE340E26EE061
:1031000080910D010E94D50663E08DE091E00E9460
:10311000B10680910D01811105C042E060E085E1BA
:1031200091E0F6CE813009F019CF43E060E086E10E
:1031300091E0EECE16E11093D6071092D7076BEE12
:103140007AE08EEC97E00E94F90880E48093D4073F
:103150008093D5071093D6071092D7078091170157
:1031600064EE7AE0882331F06DED7AE0813011F081
:1031700064ED7AE08EEC97E00E94F90880911801E6
:1031800060ED7AE0882311F06BEC7AE08EEC97E04A
:103190000E94F9084AE050E0609119018EEC97E036
:1031A0000E94970D2EE340E265E180910D010E949F
:1031B000D50663E08DE091E00E94B10680910D019B
:1031C000811105C042E060E087E191E0A1CE81304D
:1031D00029F441E060E088E191E09ACE49E060E0C6
:1031E00089E191E095CE8BE28093D6071092D707C4
:1031F00061EB7AE08EEC97E00E94F9082CE440E263
:103200006AE280910D010E94D50663E08DE091E0B5
:103210000E94B106A3CE82E38093D6071092D7070F
:103220006FE97AE08EEC97E00E94F9082CE440E226
:1032300061E325CF81E08093D6071092D70769E438
:103240007AE08EEC97E00E94F90876CE0F5F1F4F70
:10325000E1CE809113018093100110920D01232C77
:103260006BCE0F5F1F4F80910E0180171106A9F3DF
:10327000A4F3F12CE12C80910F018E151F0489F32A
:1032800084F34E2D602F8D2D0E946706B82E4E2D93
:10329000602F8C2D0E946706282F4E2D602F8D2DBC
:1032A0000E9430072B2D4E2D602F8C2D0E94300751
:1032B0004FEFE41AF40ADFCF853071F580910D01EC
:1032C000882351F0E9E7F1E089E793E08E179F0743
:1032D00009F4C4C01192FACFD090100110E000E0C0
:1032E00080910E018017110609F00CF4B7C0F12C83
:1032F000E12C80910F018E151F0459F054F020E04D
:103300004E2D602F8D2D0E9430075FEFE51AF50AD4
:10331000F0CF0F5F1F4FE4CF873009F0A2C01091AC
:103320000D0141E0112309F48FC040E080910F01AD
:1033300090E0079663E0959587956A95E1F750913F
:103340000E01589F9001599F300D1124842F90E059
:103350000196289F6001299FD00C389FD00C112422
:1033600066E27AE089E797E00E94F908111106C049
:103370006CE17AE089E797E00E94F90864E17AE07D
:1033800089E797E00E94F90867EC79E089E797E020
:103390000E94F90868EA79E0112311F06BE879E0FE
:1033A00089E797E00E94F90861E879E089E797E00A
:1033B0000E94F9084AE050E060910E0189E797E029
:1033C0000E94970D6FE779E089E797E00E94F9087E
:1033D0004AE050E060910F0189E797E00E94970D65
:1033E00010E0C09E3001C19E700CD09E700C112464
:1033F00059E7E52E51E0F52E61E0C61AD108512CAF
:1034000080911101581630F58DE799E00E94BE0DAC
:10341000F70180810E949E0D5801AE0CBF1C912CBB
:10342000812C8C149D0490F46BE779E089E797E098
:103430000E94F908F50180810E949E0DFFEF8F1A0E
:103440009F0AA00EB11EEDCF01E070CF5394E60CA1
:10345000F71CD6CF80E799E00E94BE0D10926A015A
:10346000FECE863009F0D7C0A0900D0122E0A21256
:1034700039C0EEE6F8E0E491E0930E01EFE6F8E003
:10348000E491E0930F01109210010E94330684E052
:103490008093110180910F0190E0079633E095959C
:1034A00087953A95E1F740910E01489F9001499F19
:1034B000300D1124C90143E0880F991F4A95E1F7A7
:1034C0000296A9E7B1E030E020E0F901E059F74FBA
:1034D000E491ED932F5F3F4F28173907B0F30E9417
:1034E0001206BCCFBB24B394A110B12C0E94B10929
:1034F00080930E010E94B10980930F011092100178
:1035000010E000E0A80147585E4F7A0189E797E094
:103510000E94F009892BC1F0011552E01507B8F49B
:1035200068016FEFC61AD60A0E94B109F7018193AC
:103530007F01AA2039F0F601E758FE4F80830E5F25
:103540001F4FE0CF8601E2CF01151105E9F161E5DA
:1035500078E089E797E00E94F9084AE050E060913E
:103560000E0189E797E00E94970D0E94B60D64E472
:1035700078E089E797E00E94F9084AE050E060911E
:103580000F0189E797E00E94970D0E94B60D6DE24A
:1035900078E089E797E00E94F908A80170E060E010
:1035A0002AE089E797E00E943E0D0E94B60D8091C7
:1035B0000E018150803228F480910F0181508032B9
:1035C00040F00E942D0D8BCF8EED97E00E94BE0D36
:1035D000EECF0E94330680910F0190E0079623E022
:1035E000959587952A95E1F740910E01489F9001A6
:1035F000499F300D11248B2D90E00196289FB0013A
:10360000299F700D389F700D1124C8010E94C61D9E
:103610006093110164CF843029F40E9433060E9424
:1036200012061DCE823009F01ACE9091150110912C
:10363000100180911601911157C08D7F00E08130FB
:1036400059F580910F01081708F009CEE12CF09090
:103650000E018F2D8695E816E0F4FA94FE18402F9F
:103660006E2D809110010E946706D82E402F6F2D7D
:10367000812F0E946706282F402F6E2D812F0E94D8
:1036800030072D2D402F6F2D812F0E943007E3949E
:10369000DECF0F5FD6CF0F5F80910E01081708F0C5
:1036A000DECDE12CF0900F018F2D8695E81698F76E
:1036B000FA94FE184E2D602F809110010E9467062B
:1036C000D82E4F2D602F812F0E946706282F4E2D58
:1036D000602F812F0E9430072D2D4F2D602F812FBD
:1036E0000E943007E394DECF913009F0B2C0813000
:1036F00059F5F12C20910F018F2D0F2C000C990BF7
:103700002817190609F00CF4AACD00910E010150FA
:103710002091C907802F002E000C990B281719063D
:103720008CF4EE24EA94E00E4F2D6E2D8091100162
:103730000E946706282F4F2D602F812F0E9430078F
:103740000E2DE6CFF394D6CF833051F500E02091D3
:103750000F01802F002E000C990B2817190609F075
:103760000CF47DCDF12C2091C9078F2D0F2C000C6E
:10377000990B2817190691F08CF0EE24E394EF0CC6
:10378000402F6E2D809110010E946706282F402F38
:103790006F2D812F0E943007FE2CE5CF0F5FD7CF12
:1037A000823059F5F12C20910E018F2D0F2C000C39
:1037B000990B2817190609F00CF451CD00910F014F
:1037C00001502091CA07802F002E000C990B28175A
:1037D00019068CF4EE24EA94E00E4E2D6F2D8091A4
:1037E00010010E946706282F402F6F2D812F0E9405
:1037F00030070E2DE6CFF394D6CF811130CD00E007
:1038000020910E01802F002E000C990B281719060D
:1038100009F00CF424CDF12C2091CA078F2D0F2C28
:10382000000C990B2817190691F08CF0EE24E39404
:10383000EF0C4E2D602F809110010E946706282FFB
:103840004F2D602F812F0E943007FE2CE5CF0F5F98
:10385000D7CF813089F500E020910F01802F002E15
:10386000000C990B2817190609F00CF4F8CCF0900D
:10387000C9072F2D0F2C000C330B80910E0190E007
:1038800028173907BCF4EE24E394EF0C01972817AE
:10389000390774F4402F6E2D809110010E94670645
:1038A000282F402F6F2D812F0E943007FE2CE1CF53
:1038B00080E0F6CF0F5FD0CF833031F500E020916C
:1038C0000F01802F002E000C990B2817190609F004
:1038D0000CF4C5CCF090C907F7FC14C0EE24EA94B0
:1038E000EF0C80E0FF2031F0402F6E2D8091100111
:1038F0000E946706282F402F6F2D812F0E943007CE
:10390000FE2CEACF0F5FDBCF823089F500E02091FB
:103910000E01802F002E000C990B2817190609F0B4
:103920000CF49DCCF090CA072F2D0F2C000C330BFC
:1039300080910F0190E028173907BCF4EE24E3943E
:10394000EF0C01972817390774F44E2D602F8091E2
:1039500010010E946706282F4F2D602F812F0E9493
:103960003007FE2CE1CF80E0F6CF0F5FD0CF811182
:1039700076CC00E020910E01802F002E000C990BD8
:103980002817190609F00CF46ACCF090CA07F7FC66
:1039900014C0EE24EA94EF0C80E0FF2031F04E2DAD
:1039A000602F809110010E946706282F4F2D602FF5
:1039B000812F0E943007FE2CEACF0F5FDBCF80E221
:1039C0000E94A606182F882341F10E94220884E055
:1039D0000E94A606882309F491C0F090CA070091BE
:1039E000C907109110014F2D602F812F0E9467068B
:1039F00081117DC083E080936901209169014F2D81
:103A0000602F812F0E94300788E00E94A60688233D
:103A100009F4A6C810926A01A3C80E94EE0A85FFA5
:103A200010C08091CD078F3128F48F5F8093CD0730
:103A300010E0CDCF8EE18093CD070E94220811E0E7
:103A4000C6CF80E40E94A606182F882319F00E9492
:103A5000B007BDCF0E94EE0A86FF0EC08091CD0751
:103A600091E0980F9093CD078F3110F38EE1809302
:103A7000CD070E94B007E3CF80E80E94A606182F6A
:103A8000882319F00E94D707A2CF0E94EE0A182FB0
:103A9000111F1127111F61F08091CD0791E0980F40
:103AA0009093CD078F3120F28EE18093CD07EACF3E
:103AB00080E10E94A606182F882319F00E94FB07B8
:103AC00086CF0E94EE0A84FF0FC08091CD0791E05F
:103AD000980F9093CD078F3108F4AACF8EE1809391
:103AE000CD070E94FB07ABCF1092CD0770CF83307C
:103AF00011F482E080CF109269017FCF0E94EE0A1C
:103B000082FF82CF112309F47FCF20916901409178
:103B1000CA076091C9078091100174CFF999FECF4F
:103B200092BD81BDF89A992780B50895262FF999FD
:103B3000FECF1FBA92BD81BD20BD0FB6F894FA9A90
:103B4000F99A0FBE01960895A1E21A2EAA1BBB1B7B
:103B5000FD010DC0AA1FBB1FEE1FFF1FA217B30759
:103B6000E407F50720F0A21BB30BE40BF50B661F6F
:103B7000771F881F991F1A9469F760957095809533
:103B800090959B01AC01BD01CF010895AA1BBB1B01
:103B900051E107C0AA1FBB1FA617B70710F0A61B4D
:103BA000B70B881F991F5A95A9F780959095BC016E
:103BB000CD01089597FB072E16F4009407D077FDEA
:103BC00009D00E94C61D07FC05D03EF49095819552
:103BD0009F4F0895709561957F4F0895EE0FFF1FD9
:103BE0000590F491E02D099481E090E0F8940C9414
:063BF000F91DF894FFCF5F
:103BF600FFFFFFFF00E100000000000000001010C2
:103C0600000404000000000000000000C1808100E4
:103C16000000000000004A09620A6B096009F00909
:103C26006F098D0900000000580C1D092A0D290D89
:103C360000000000550B1D092A0D290DEF10FCFF91
:083C4600000031110D0A00001D
:00000001FF
